:020000040800F2
:1000000000500020E16E00080118000803180008E5
:10001000051800080718000809180008000000006B
:100020000000000000000000000000000B180008A5
:100030000D180008000000000F1800081118000833
:10004000296F0008296F0008296F0008296F000830
:10005000296F0008296F0008296F0008296F000820
:10006000296F0008296F0008296F00081918000877
:10007000296F0008296F0008296F0008296F000800
:10008000296F0008296F0008296F0008296F0008F0
:1000900039180008296F0008296F0008296F000827
:1000A000296F0008296F0008296F0008296F0008D0
:1000B000296F0008296F000829180008296F000817
:1000C000296F0008296F0008296F0008296F0008B0
:1000D000296F0008296F0008296F0008296F0008A0
:1000E000296F0008296F0008296F00080000000030
:1000F0000000000000000000000000000000000000
:0C01000000000000000000005FF808F1A3
:10010C000348044B834202D0034B03B1184770479A
:10011C007C0100207C010020000000000548064BFB
:10012C001B1AD90F01EBA301491002D0034B03B1E9
:10013C00184770477C0100207C0100200000000063
:10014C0010B5064C237843B9FFF7DAFF044B13B113
:10015C000448AFF300800123237010BD7C01002004
:10016C00000000002C6F000808B5044B1BB10449BB
:10017C000448AFF30080BDE80840CFE70000000062
:10018C00800100202C6F000820F0030110F0030008
:10019C00C0F1000051F8043B00F1040C4FEACC0C08
:1001AC006FF000021CBF22FA0CF213434FF0010C4B
:1001BC004CEA0C2C4CEA0C4CA3EB0C0222EA03028A
:1001CC0012EACC1204BF51F8043B0430F4D0C2F153
:1001DC00000102EA0102B2FA82F2C2F11F0200EB44
:1001EC00D200704770B50F4B0F4DAB42A3EB050619
:1001FC0007D00024B61055F8043B01349847A642AA
:10020C00F9D806F08DFE094D094B5E1BAB424FEA47
:10021C00A60606D0002455F8043B01349847A642A4
:10022C00F9D870BDC4700008C4700008C470000810
:10023C00C870000870B5860747D0541E002A3ED0FF
:10024C000346CAB201E0013C39D303F8012B9D07E8
:10025C00F9D1032C2CD9CDB205EB05250F2C1A4660
:10026C0005EB054534D9A4F1100C2CF00F0603F165
:10027C00100EB6444FEA1C1CC2E90055C2E90255E7
:10028C0010327245F8D10CF1010214F00C0F03EB93
:10029C00021204F00F0C13D0ACF1040323F003038F
:1002AC000433134442F8045B9342FBD10CF0030477
:1002BC002CB1C9B21C4403F8011BA342FBD170BD85
:1002CC0064461346002CF4D1F9E703461446C0E704
:1002DC00A446E1E7014B1868704700BF00000020FE
:1002EC0008B410B5002A04469DB034DB4FF4027CF0
:1002FC004FF00003ADF814C01B934FF6FF7C029136
:10030C00069120AB15D0013A0492079202A91F9ACC
:10031C000193ADF816C000F051F9421C01DA8B23A1
:10032C0023600022029B1A701DB0BDE8104001B082
:10033C0070470492079202A91F9A0193ADF816C058
:10034C0000F03CF9431C01DA8B2323601DB0BDE89F
:10035C00104001B070478B234FF0FF302360F5E75E
:10036C000CB410B5204B00291C689CB036DB4FF048
:10037C0000034FF402721B934FF6FF7C0290069021
:10038C00ADF814201FAB16D001391E9A04910791B9
:10039C00204602A90193ADF816C000F00FF9421CDB
:1003AC0001DA8B2323600022029B1A701CB0BDE87B
:1003BC00104002B070470491079120461E9A02A982
:1003CC000193ADF816C000F0F9F8431C01DA8B2349
:1003DC0023601CB0BDE8104002B070478B234FF077
:1003EC00FF302360F5E700BF000000202DE9F04747
:1003FC001D468F680C46AF4216460B6836D8B1F9CD
:10040C000CC01CF4906F0ED13D46184631462A465E
:10041C0000F0F0FA0020A368DF1B2368A7602B44D0
:10042C002360BDE8F0874A69096902EB42025F1A52
:10043C0002EBD2726B1C52103B44934292BF91461A
:10044C0099461A461CF4806F804611D0114600F074
:10045C00F3F9824600B33A46216900F049FBA389BF
:10046C0023F4906343F08003A38105E02F46CCE78F
:10047C0000F0B4FB824658B10AEB0703A9EB07075F
:10048C00A760C4F810A02F46C4F814902360BCE7F2
:10049C004046216900F050FA0C22A3894FF0FF303E
:1004AC0043F04003C8F80020A381BAE72DE9F04FD0
:1004BC00936883B0924617680190002B76D04FF06A
:1004CC00000B0C465D468B680A6848E0B4F90CC01A
:1004DC001CF4906F2FD0D4E90403A2EB000803EBBB
:1004EC00430202EBD27208F10101521029449142ED
:1004FC0092BF914689460A461CF4806F39D011464A
:10050C00019800F099F9064600283DD04246216931
:10051C0000F0EEFAA28922F4906242F08002A281ED
:10052C0006EB0800A9EB08022661A8462E46A2603D
:10053C002060C4F814903246594600F05BFADAF8A1
:10054C000810A3682268A3EB08033244491BA3607C
:10055C002260CAF8081049B3D7E900B508379846A5
:10056C001046002DF8D09D421E46AFD2A8462E460E
:10057C00E1E70146019800F031FB06460028CFD197
:10058C000198216900F0D8F90C21A389019D43F051
:10059C00400329600022A3814FF0FF300023CAF8EA
:1005AC000820CAF8043003B0BDE8F08F0020002307
:1005BC00CAF8043003B0BDE8F08F00BF2DE9F04F4E
:1005CC001C468B8989461D06824693469DB003D5F1
:1005DC000B69002B00F0EE80002343F220020993FC
:1005EC009BF8003001277C4E0394ADF82920002B9A
:1005FC0071D05D4603E015F8013F002B73D0252B1D
:10060C00F9D1B5EB0B0471D12A78002A63D0002301
:10061C004FF0FF320135CDE90523049307938DF894
:10062C0053301A9306E02546049B801B07FA00F012
:10063C00034304932C46052214F8011B304600F0AA
:10064C00D7FCA3460028EED1049BD90644BF202238
:10065C008DF853201A0748BF2B22297848BF8DF8F4
:10066C0053202A294FD1039A11680432002903928E
:10067C007BDB079169782E295BD0584C03222046EE
:10068C0000F0B6FC38B14022049B001B824013439F
:10069C000BF1010B04931BF8011B062250488DF83B
:1006AC00281000F0A5FC002865D04E4B002B55D02F
:1006BC0003A900914A4650464B4B04A9AFF3008066
:1006CC008046B8F1FF3F06D0099B434409939BF841
:1006DC000030002B8DD1B9F80C305B0679D4099819
:1006EC001DB0BDE8F08FB5EB0B04F4D023465A4691
:1006FC0049465046FFF77AFE0130ECD0099B2A7828
:10070C002344099381E7A1F13002092A88BFAB4643
:10071C00B1D8079B00E00134217803EB830302EB93
:10072C004303A1F13002092AF5D92E29A3460793D8
:10073C00A3D19BF801102A2927D1039B0BF10200AE
:10074C001A680433002A0393B8BF4FF0FF339BF8A9
:10075C00021005928346B8BF05938EE7039B0733BF
:10076C0023F0070308330393AEE7494243F0020337
:10077C00079104937EE703A900914A4650461A4B11
:10078C0004A900F0EFFA80469BE70023A1F13002A8
:10079C00092A0BF1010B05933FF66FAF1BF8011FF4
:1007AC0003EB830302EB4303A1F13002092AF5D9D1
:1007BC00059362E7402100F03FF8C9F80000C9F842
:1007CC00100018B14023C9F8143005E70C23CAF8FF
:1007DC0000304FF0FF3083E740700008487000088D
:1007EC004C70000800000000F903000870B5114EB1
:1007FC00054633680C46BBB12146284600F044FC44
:10080C00431C01460CD0C41C24F00304A04205D0A8
:10081C002846611A00F038FC013001D0204670BD2A
:10082C004FF0FF34204670BD194600F02DFC3060AF
:10083C00E2E700BFD40200202DE9F843CD1C25F0DF
:10084C00030508350C2D38BF0C25002D064618DB8A
:10085C00A94216D8DFF8DC8000F0C6FBD8F80420DB
:10086C00A2B1144603E0636822467BB11C462368A0
:10087C005B1BF8D40B2B1FD89442636854D0536085
:10088C000CE00C2333600020BDE8F8832946304689
:10089C00FFF7ACFF431C044619D00560304600F04E
:1008AC00A5FB04F10B00231D20F00700C21A1CBF8E
:1008BC001B1AA350BDE8F88361199442256014BF3C
:1008CC005160C8F80410635163684B60E6E7D8F8D0
:1008DC0004701FB33C467F68002FFBD12368394658
:1008EC00304604EB030900F0CFFB814516D1236899
:1008FC003046ED1A2946FFF779FF01300ED02368F8
:10090C00D8F804202B442360536883B1A34203D04E
:10091C001A465B689C42FBD10023B0E70C2330469F
:10092C00336000F063FBAEE7C8F80430B6E7C8F8F4
:10093C000470B3E7D4020020002950D038B551F828
:10094C00043C0C1F002BB8BFE418054600F04CFB10
:10095C00274A13682BB1A3420CD921686018834233
:10096C002CD0284663601460BDE8384000F03EBBD4
:10097C00A3420FD81A465B68002BF9D111685018A6
:10098C00844217D02CD3636054602846BDE83840AD
:10099C0000F02CBB11685018A04214D020D821684C
:1009AC0060188342EFD118685B680844C4E90003FF
:1009BC005460EAE723680B441360E6E718685B6849
:1009CC0008442060CDE72068014450188342116030
:1009DC00DBD1D3E900040144C2E90014D5E7704728
:1009EC000C2328462B60BDE8384000F0FFBA00BF4E
:1009FC00D802002088420ED98B1883420BD900EB09
:100A0C00020C002A6DD0624613F801CD994202F80F
:100A1C0001CDF9D170470F2A0FD8034602F1FF3CE4
:100A2C00002A5ED00CF1010C013B8C4411F8012B17
:100A3C00614503F8012FF9D1704740EA01039B0788
:100A4C0050D1A2F1100370B501F1200C23F00F0569
:100A5C0001F1100E00F11004AC441B095EF8105C9F
:100A6C000EF1100E44F8105C5EF81C5C103444F867
:100A7C001C5C5EF8185C44F8185C5EF8145CE64587
:100A8C0044F8145CEAD1013312F00C0F01EB0311A2
:100A9C0002F00F0400EB031328D08E46043C24F024
:100AAC0003064FEA940C1E441C1F5EF8045B44F8CA
:100ABC00045FB442F9D10CF1010402F0030203EB20
:100ACC00840301EB840102F1FF3C4AB10CF1010CEF
:100ADC00013B8C4411F8012B614503F8012FF9D12E
:100AEC0070BD7047034602F1FF3C9BE72246EAE7E4
:100AFC00844641EA000313F0030349D1403A23D35F
:100B0C000B6803604B6843608B688360CB68C36081
:100B1C000B6903614B6943618B698361CB69C36169
:100B2C000B6A03624B6A43628B6A8362CB6AC36251
:100B3C000B6B03634B6B43638B6B8363CB6BC36339
:100B4C0040304031403ADBD230320BD30B6803607B
:100B5C004B6843608B688360CB68C3601030103186
:100B6C00103AF3D20C3205D351F8043B40F8043B55
:100B7C00043AF9D2043208D0D2071CBF11F8013B59
:100B8C0000F8013B01D30B8803806046704700BF1F
:100B9C00082A13D38B07B1D010F00303AED0C3F1E6
:100BAC000403D21ADB071CBF11F8013B00F8013B10
:100BBC00A4D331F8023B20F8023B9FE7043AD9D387
:100BCC00013A11F8013B00F8013BF9D20B780370A4
:100BDC004B7843708B788370604670472DE9F041F9
:100BEC00144641B30AB306460D4600F05FFA844240
:100BFC00074602D8B4EB500F13D821463046FFF706
:100C0C001BFE804650B1BC422246294628BF3A46BC
:100C1C00FFF76EFF29463046FFF78EFE4046BDE8D3
:100C2C00F081A8464046BDE8F081A046FFF784FE5F
:100C3C004046BDE8F0811146BDE8F041FFF7FCBD30
:100C4C002DE9F84F92461F460A698B680C469A426A
:100C5C00B8BF1A46CAF8002091F843300646DDF8B2
:100C6C00289013B10132CAF80020226891065FD592
:100C7C00DAF800300233CAF80030226812F0060F9E
:100C8C0011461DD1E1689942D8BF114618DD4FF0CD
:100C9C00000804F1190B05E0E568DAF80030ED1AEC
:100CAC0045450CDD01235A4639463046C8470130CC
:100CBC0008F10108F0D14FF0FF30BDE8F88F216842
:100CCC0094F84330003B18BF01238A060AD5302123
:100CDC00E21882F8431094F845105A1C224402334F
:100CEC0082F843103946304604F14302C8470130BC
:100CFC00E1D0D4E902202368DAF8005003F00603AF
:100D0C00042B21691BD08A4220DD4FF00008521AB7
:100D1C00904400251A3401E0454517DA0123224698
:100D2C0039463046C847013005F10105F4D1C2E718
:100D3C0012F0060F0DD0003B18BF0123D2E7401B69
:100D4C008A4220EAE078E2DC0028E2DC0020BDE800
:100D5C00F88FE168DAF800309942D8BF114696DC7A
:100D6C00AEE700BF2DE9F04717460A7E84B00C466B
:100D7C00064698460C9D01F1430C002A35D0A2F191
:100D8C005803D9B2202969D8202B67D8DFE813F093
:100D9C00E600660066006600660066006600660097
:100DAC00660066006600AC007000660066006600B7
:100DBC006600700066006600660066002100830015
:100DCC00C60066006600B60066008300660066001A
:100DDC00EC002B682268181D6169286010061B68DE
:100DEC0002D4520600F1E08019600023E146236131
:100DFC003B4621463046CDF8008003AAFFF720FF82
:100E0C00013020D04A46394630462369C04701306C
:100E1C0019D02368E0689B07DDF80C9018D548457D
:100E2C0016DD002504F1190A04E0E068A0EB0903C3
:100E3C00AB420DDD0123524639463046C0470130E6
:100E4C0005F10105F1D14FF0FF3004B0BDE8F0879A
:100E5C004845B8BF484604B0BDE8F087012084F887
:100E6C00422004F142090023206184F84330BFE79B
:100E7C002A682368111D1806296002D4590600F14E
:100E8C0095801068014600286268C0F293804FF08C
:100E9C000A0E534815E020682B6810F0800F53F8A9
:100EAC00041B02D1400648BF89B26F2A14BF4FF011
:100EBC000A0E4FF0080E4A482B600023626884F833
:100ECC004330002AA26051DB236823F00403236023
:100EDC0000294BD1002A7BD1E146BEF1080F56D038
:100EEC00ACEB0903236183E72A6801201168043203
:100EFC002A6004F1420984F84210B4E72B680021FF
:100F0C001A1D2A60D3F800906268484600F070F809
:100F1C00002863D0A0EB09006060A4E7236843F0CD
:100F2C002003236078222F4884F845202A6813F088
:100F3C00800F52F8041B03D113F0400F18BF89B275
:100F4C002A60DA0744BF43F02003236019B92368F1
:100F5C0023F0200323604FF0100EAEE758232048F7
:100F6C0084F845302368E1E72368DBE77546E14602
:100F7C00B1FBF5F30A4605FB131A194610F80A30B3
:100F8C00AA4209F8013DF3D2BEF1080FA8D123689B
:100F9C00DD07A5D5626823699A42A1DC302309F1EB
:100FAC00FF3989F800309BE719801EE7B2F9001071
:100FBC00084668E72D20002AA26084F8430002DB73
:100FCC0023F0040323600A250548AE464942CEE7C8
:100FDC00037804F1420984F842307EE7606842E706
:100FEC005470000868700008704700BF704700BF5D
:100FFC005FFA81FC810744D00346511E22B909E0F7
:10100C009A0709D0013905D3184602780133624595
:10101C00F6D1704700207047184603290CD80029D8
:10102C00F8D00346014401E08B42F3D0184613F884
:10103C00012B6245F8D1704710B50CEB0C2402461D
:10104C0004EB044402E00439032915D9104652F884
:10105C00043B6340A3F1013E2EEA030313F0803FEF
:10106C00F1D00346014401E08B4208D0184613F836
:10107C00012B6245F8D110BD10460029F1D100209A
:10108C0010BD1146C9E700BF002238B5064D044615
:10109C0008462A6004F0FEFB431C00D038BD2B68C8
:1010AC00002BFBD0236038BDDC02002051F8043C3F
:1010BC00181F002BBCBF0B58C018704700B54FF45D
:1010CC00077C0CFB00F00B4BA3FB00E2801A02EB3D
:1010DC005002D20A1E320CFB01F1A3FB0103C91A08
:1010EC0003EB5103DB0A1E33034909684A638B6324
:1010FC005DF804FB01011000A003002000B58FB0C7
:10110C000DA90DF1360004F027FD10B90FB05DF8F4
:10111C0004FBBDF934300093BDF93630074A282161
:10112C0003A8FFF71DF90028F0DD4FF0FF3382B262
:10113C0003A9034802F08FFBE8E700BF446F0008E7
:10114C00E803002010B50446FFF71EF84FF0FF33FC
:10115C0082B22146014802F07EFB10BDE80300205C
:10116C0008B50268074B9A4200D008BD064B1B78A5
:10117C00002BFAD1054B1888598889B280B2FFF739
:10118C009DFFF2E7002401402409002054030020B5
:10119C0072B6FEE700B595B0282200210DEB0200D7
:1011AC00FFF748F8002305930693079308930993D8
:1011BC00019302930393049301220A924FF4803318
:1011CC000B930E920222119212934FF4E01313938D
:1011DC000AA800F09FFEC0B90F23059302210691C7
:1011EC00002307934FF480620892099305A801F03D
:1011FC00C3F860B9102301930023049301A801F0F4
:10120C0097F930B915B05DF804FBFFF7C1FFFFF794
:10121C00BFFFFFF7BDFF000010B500F041FEFFF768
:10122C00B9FF00F077F800F05FF900F0C1F800F0BA
:10123C0075F900F0E9F904F0B1FC00F087FA2B48DD
:10124C0000F088FD08B1FFF7A3FF0021284802F049
:10125C00CDF808B1FFF79CFF0021254802F044F9B6
:10126C0008B1FFF795FF0421214802F0BFF808B13F
:10127C00FFF78EFF04211E4802F036F908B1FFF784
:10128C0087FF02221B49194800F01CFC08B1FFF72C
:10129C007FFF194801F0ACFD08B1FFF779FF174843
:1012AC00FFF750FF04F01AFB1548FFF74BFF00F057
:1012BC0015FE044602E01348FFF744FFFFF71EFF3C
:1012CC0000F00CFE001BB0F5FA7FF7D300F006FE21
:1012DC0004464FF400510C4801F036FB0B4B1B78C5
:1012EC00002BE8D00A48FFF72DFFE7E72403002086
:1012FC00A00300205403002058030020586F00085E
:10130C00886F0008D06F00080010014024090020ED
:10131C00AC6F000830B58BB0002406940794089489
:10132C000994214B9A6942F010029A619A6902F071
:10133C0010020192019A9A6942F020029A619A690C
:10134C0002F020020292029A9A6942F004029A6117
:10135C009A6902F004020392039A9A6942F0080215
:10136C009A619A6902F008020492049A9A6942F00E
:10137C0001029A619B6903F001030593059B0B4DD8
:10138C0001224FF40051284601F0D8FA4FF40053D3
:10139C0006930123079308940223099306A9284670
:1013AC0001F0BEF90BB030BD00100240001001403E
:1013BC0000B585B000230193029303931848194A92
:1013CC0002604FF480728260037303754FF4002245
:1013DC00C26143600223036100F038FCB0B90823FA
:1013EC000193012302930223039301A90C4800F0FB
:1013FC0085FA70B9092301930223029301A90848C5
:10140C0000F07CFA40B905B05DF804FBFFF7C0FEB4
:10141C00E5E7FFF7BDFEEDE7FFF7BAFEF3E700BF28
:10142C00240300200024014010B58AB00023069349
:10143C00079308930993029303930493059302680B
:10144C00244B9A4201D00AB010BD044602230293E9
:10145C004FF40043049302A801F06AF8002833D13A
:10146C001D4B9A6942F400729A619A6902F40072F7
:10147C000092009A9A6942F008029A619B6903F003
:10148C0008030193019B03230693079306A91348B2
:10149C0001F046F91248134B03600023436083604C
:1014AC008023C3604FF4807303614FF48063436106
:1014BC00202383614FF40053C36101F065FA30B906
:1014CC00074B23625C62BEE7FFF762FEC8E7FFF7DB
:1014DC005FFEF5E70024014000100240000C0140C3
:1014EC00E00200200800024000B583B00A4B5A69A4
:1014FC0042F001025A615B6903F001030193019B05
:10150C00002203210B2001F097FB0B2001F0A4FB20
:10151C0003B05DF804FB00BF0010024010B596B09C
:10152C000024129413941494159410941194099407
:10153C000A940B940C940D940E940F942022214633
:10154C0001A8FEF777FE2E482E4B036044608460A2
:10155C0040F25723C360046144618023836101F02E
:10156C00E3FD002839D14FF48053129312A924487B
:10157C0001F0AEFE002833D1602309934FF496732B
:10158C000A9300220B920C920D920E920F9209A9C3
:10159C001B4801F023FE30BB042209A9184801F0B6
:1015AC001DFE18BB202310930023119310A914487F
:1015BC0002F004F8E8B90023019302930393072285
:1015CC00049205934FF400520692089301A90C481B
:1015DC0002F02AF880B916B010BDFFF7D9FDC2E7AA
:1015EC00FFF7D6FDC8E7FFF7D3FDD5E7FFF7D0FD32
:1015FC00D8E7FFF7CDFDDEE7FFF7CAFDEBE700BF4D
:10160C00A0030020002C014000B587B000230293FA
:10161C00039304930593009301931448144A0260B6
:10162C004360836040F25722C260036101F050FDB9
:10163C0098B94FF48053029302A90C4801F048FE6C
:10164C0070B920230093002301936946074801F0E9
:10165C00B5FF40B907B05DF804FBFFF799FDE8E76B
:10166C00FFF796FDEDE7FFF793FDF3E75803002036
:10167C000004004030B589B0002304930593069311
:10168C00079302681B4B9A4201D009B030BD03F599
:10169C0064439A6942F400629A619A6902F40062A6
:1016AC000192019A9A6942F004029A619A6902F0D5
:1016BC0004020292029A9A6942F008029A619B69AA
:1016CC0003F008030393039B4FF440730493022528
:1016DC0005950324079404A9074801F021F84FF459
:1016EC00C04304930595079404A9044801F018F825
:1016FC00CBE700BF002C014000080140000C01406A
:10170C0082B003680E4A934204D00E4A93420CD026
:10171C0002B070470C4BDA6942F00202DA61DB6905
:10172C0003F002030093009BF2E7074BDA6942F0E7
:10173C000402DA61DB6903F004030193019BE7E720
:10174C0000040040000800400010024008B50A48A0
:10175C000A4B03604FF46123436000238360C36032
:10176C0003610C2242618361C36102F044F800B949
:10177C0008BDFFF70DFDFBE7E80300200044004027
:10178C0010B586B00023029303930493059302686B
:10179C00164B9A4201D006B010BD03F5E633DA6958
:1017AC0042F40032DA61DA6902F400320092009AF3
:1017BC009A6942F004029A619B6903F00403019355
:1017CC00019B042302930223039303230593084CE8
:1017DC0002A9204600F0A4FF0823029300230393E0
:1017EC00049302A9204600F09BFFD4E7004400407C
:1017FC0000080140FEE7FEE7FEE7FEE7FEE7704764
:10180C007047704708B500F05DFB08BD08B502488D
:10181C0001F02AF908BD00BFE002002008B502481B
:10182C0001F065FB08BD00BF2809002008B502487F
:10183C0002F061FE08BD00BFC413002082B00E4B45
:10184C009A6942F001029A619A6902F001020092CF
:10185C00009ADA6942F08052DA61DB6903F0805356
:10186C000193019B054A536823F0E06343F08063C6
:10187C00536002B0704700BF0010024000000140EE
:10188C0008B5436A9A6A12F0500F1ED19A6A42F454
:10189C0000729A621A68926802F46022B2F5602FA4
:1018AC0003D01846FFF75CFC08BD1A7B002AF8D160
:1018BC009A6A22F480729A629A6A12F4805FF0D16A
:1018CC009A6A42F001029A62EBE71B6A1B6B98471B
:1018DC00EAE7704708B5406AFFF7FBFF08BD7047A1
:1018EC0008B5406A836A43F040038362C36A43F0DD
:1018FC000403C362FFF7F3FF08BD000030B482B0ED
:10190C000022019290F82420012A00F08F800346D7
:10191C00012280F824204A68062A2DD80468606BBE
:10192C0002EB8202053A4FF01F0C0CFA02FC20EA83
:10193C000C000D6805FA02F2024362630A68092A78
:10194C0038D91C68E06802EB42021E3A4FF0070CD3
:10195C000CFA02FC20EA0C008D6805FA02F2024334
:10196C00E2600A68103A012A34D90020002283F878
:10197C00242002B030BC70470C2A0DD80568286BA7
:10198C0002EB8202233A1F24944020EA04000C68E4
:10199C00944020432863D1E70568E86A02EB820291
:1019AC00413A1F24944020EA04000C6894402043E0
:1019BC00E862C3E71C68206902EB42024FF0070C97
:1019CC000CFA02FC20EA0C008D6805FA02F20243C4
:1019DC002261C6E71A681648824205D09A6A42F01C
:1019EC0020029A620120C1E7906810F4000F1BD10D
:1019FC00906840F4000090600A68102A01D0002022
:101A0C00B4E70C4A12680C49A1FB0212920C02EBCF
:101A1C0082025200019202E0019A013A0192019A6B
:101A2C00002AF9D10020A1E700209FE70220A0E7BF
:101A3C00002401405800002083DE1B4330B583B0E6
:101A4C000023019303689A6812F0010F33D1044606
:101A5C009A6842F001029A60184B1B68184AA2FB64
:101A6C0003239B0C019302E0019B013B0193019B1F
:101A7C00002BF9D100F032FA054623689B6813F06D
:101A8C00010F16D100F02AFA431B022BF5D923685B
:101A9C009B6813F0010FF0D1A36A43F01003A3620B
:101AAC00E36A43F00103E362002384F8243001204D
:101ABC0002E0002000E0002003B030BD5800002000
:101ACC0083DE1B43F8B504460D46164601684448B0
:101ADC00814259D0434B994256D094F82430012B73
:101AEC007CD0012384F824302046FFF7A7FF07465B
:101AFC0000286ED1A16A21F4706121F0010141F43A
:101B0C008071A1622268374B9A4244D0A36A23F4B5
:101B1C008013A362536813F4806F05D0A36A23F477
:101B2C00405343F48053A362A36A13F4805F48D0FC
:101B3C00E36A23F00603E362002384F82430236A6B
:101B4C00294A9A62236A294ADA62236A284A1A6362
:101B5C0023686FF002021A602268936843F4807362
:101B6C009360216833462A464C31206A00F040FFCE
:101B7C0023689A6802F46022B2F5602F24D09A6828
:101B8C0042F480129A6027E0154B5B6813F4702FB7
:101B9C00A3D0012720E0A3F580635B6813F4702FBA
:101BAC00B4D0A36A43F48013A3620D4B5B6813F4A7
:101BBC00806FB9D0A36A23F4405343F48053A362DB
:101BCC00B2E70023E362B7E79A6842F4A0029A6096
:101BDC0002E0002384F824303846F8BD0227FBE7E6
:101BEC0000240140002801408D180008E11800086D
:101BFC00ED18000838B503689A6812F0010F01D18E
:101C0C00002038BD04469A6822F001029A6000F068
:101C1C0065F9054623689B6813F0010F13D000F09B
:101C2C005DF9431B022BF5D923689B6813F0010F58
:101C3C00F0D0A36A43F01003A362E36A43F00103FC
:101C4C00E3620120DDE70020DBE7000000287BD009
:101C5C0070B50446836A002B4DD02046FFF7CAFFAF
:101C6C00A36A13F0100369D1002867D1A26A22F489
:101C7C00885222F0020242F00202A2626268E1691A
:101C8C000A43217B42EA4102A568B5F5807F02D068
:101C9C00012D36D01D46267D012E35D02668716863
:101CAC0021F46941294371602568AE6827493140A8
:101CBC001143A960A168B1F5807F01D0012902D13F
:101CCC002369013B1B052568E96A21F470010B436C
:101CDC00EB62236899681E4B0B409A4225D0A36A8D
:101CEC0023F0120343F01003A362E36A43F00103F1
:101CFC00E362012027E0C36280F82430FFF794FBF5
:101D0C00ABE74FF48075C6E731B9A169013945EAF3
:101D1C00413141F40065C1E7A16A41F02001A162A3
:101D2C00E16A41F00101E162B8E70023E362A36AD2
:101D3C0023F0030343F00103A36204E0A36A43F01E
:101D4C001003A362012070BD01207047FDF7E1FF75
:101D5C00FE0E1FFF70B582B00023019390F8243063
:101D6C00012B72D00446012380F82430FFF742FF88
:101D7C002046FFF763FE054628B1002384F8243083
:101D8C00284602B070BDA36A23F4885323F00203E3
:101D9C0043F00203A3622E4B1E68022000F054FC99
:101DAC00B6FBF0F67600019602E0019B013B019335
:101DBC00019B002BF9D12268936843F008039360D0
:101DCC0000F08CF8064623689A6812F0080F14D0BD
:101DDC0000F084F8801B0A28F5D923689B6813F05F
:101DEC00080FF0D0A36A23F0120343F01003A36290
:101DFC00002384F824300125C2E79A6842F00402DB
:101E0C009A6000F06BF8064623689B6813F0040F89
:101E1C0014D000F063F8801B0A28F5D923689B685E
:101E2C0013F0040FF0D0A36A23F0120343F0100355
:101E3C00A362002384F824300125A1E7A36A23F0D0
:101E4C00030343F00103A36297E7022598E700BF61
:101E5C005800002010B504460E4B1A784FF47A73D4
:101E6C00B3FBF2F30C4A1068B0FBF3F000F002FF86
:101E7C0068B90F2C01D901200AE0002221464FF04D
:101E8C00FF3000F0D9FE054B1C60002000E0012063
:101E9C0010BD00BF5000002058000020540000204E
:101EAC0008B5074A136843F010031360032000F0D1
:101EBC00B1FE0F20FFF7CEFFFFF7C0FC002008BDDE
:101ECC0000200240034A1168034B1B780B4413603B
:101EDC00704700BF3004002050000020014B1868F0
:101EEC00704700BF3004002082B0084B1B68084AC2
:101EFC00A2FB03235B0A00FB03F3019300BF019BCE
:101F0C005A1E0192002BF9D102B0704758000020E4
:101F1C00D34D6210002800F0F18170B582B00446F8
:101F2C00036813F0010F2CD0994B5B6803F00C0382
:101F3C00042B1DD0964B5B6803F00C03082B12D0BE
:101F4C006368B3F5803F41D0002B55D103F180433A
:101F5C0003F504331A6822F480321A601A6822F4EA
:101F6C0080221A6037E08A4B5B6813F4803FE7D01D
:101F7C00874B1B6813F4003F03D06368002B00F001
:101F8C00BF81236813F0020F75D0814B5B6813F08F
:101F9C000C0F5FD07E4B5B6803F00C03082B54D006
:101FAC002369002B00F08A807A4B01221A60FFF71C
:101FBC0095FF0546764B1B6813F0020F75D1FFF7A2
:101FCC008DFF401B0228F5D903209EE1704A13684F
:101FDC0043F480331360636843B3FFF77FFF054618
:101FEC006B4B1B6813F4003FCBD1FFF777FF401B03
:101FFC006428F5D9032088E1B3F5A02F09D0644BF0
:10200C001A6822F480321A601A6822F480221A604C
:10201C00E1E703F18043A3F53C331A6842F48022D4
:10202C001A601A6842F480321A60D4E7FFF756FF40
:10203C000546574B1B6813F4003FA2D0FFF74EFF29
:10204C00401B6428F5D903205FE1514B5B6813F406
:10205C00803FA5D14E4B1B6813F0020F03D02369B0
:10206C00012B40F04F814A4A136823F0F803616951
:10207C0043EAC1031360236813F0080F33D0A3693C
:10208C00002B5CD0434B0122C3F88024FFF726FFC2
:10209C0005463F4B5B6A13F0020F21D1FFF71EFF81
:1020AC00401B0228F5D903202FE1394A136823F08D
:1020BC00F803616943EAC1031360DCE7354B002286
:1020CC001A60FFF70BFF0546314B1B6813F0020F2C
:1020DC00D1D0FFF703FF401B0228F5D9032014E1F0
:1020EC000120FFF701FF236813F0040F00F0968026
:1020FC00274BDB6913F0805F34D1254BDA6942F052
:10210C008052DA61DB6903F080530193019B012556
:10211C00214B1B6813F4807F26D0E368012B3DD044
:10212C00002B53D103F1804303F504331A6A22F0D8
:10213C0001021A621A6A22F004021A6233E0154B89
:10214C000022C3F88024FFF7C9FE0546104B5B6ADA
:10215C0013F0020FC7D0FFF7C1FE401B0228F5D9C0
:10216C000320D2E00025D3E70B4A136843F48073B5
:10217C001360FFF7B3FE0646074B1B6813F4807F12
:10218C00CBD1FFF7ABFE801B6428F5D90320BCE054
:10219C000010024000004242007000405F4A136A87
:1021AC0043F001031362E36833B3FFF797FE06466F
:1021BC005A4B1B6A13F0020F2FD1FFF78FFE801BB7
:1021CC0041F288339842F3D903209EE0052B09D0C5
:1021DC00524B1A6A22F001021A621A6A22F00402A5
:1021EC001A62E0E74D4B1A6A42F004021A621A6A4C
:1021FC0042F001021A62D6E7FFF770FE0646474B23
:10220C001B6A13F0020F08D0FFF768FE801B41F227
:10221C0088339842F3D9032077E0E5B9E369002BC2
:10222C0072D03E4A526802F00C02082A56D0022B99
:10223C0017D03B4B00221A66FFF750FE0446374B73
:10224C001B6813F0007F47D0FFF748FE001B0228E5
:10225C00F5D9032059E0314AD36923F08053D36177
:10226C00DCE72F4B00221A66FFF738FE05462B4B96
:10227C001B6813F0007F06D0FFF730FE401B0228CE
:10228C00F5D9032041E0236AB3F5803F1AD02349E6
:10229C004B6823F47413226A606A024313434B6045
:1022AC001F4B01221A66FFF719FE04461B4B1B68D5
:1022BC0013F0007F0ED1FFF711FE001B0228F5D999
:1022CC00032022E0154A536823F40033A1680B4322
:1022DC005360DCE7002018E0002016E0012B16D03C
:1022EC000E4B5B6803F48031226A914211D103F4E6
:1022FC007013626A93420ED1002006E001207047F1
:10230C00012002E0012000E0002002B070BD01209D
:10231C00FBE70120F9E70120F7E700BF00100240BE
:10232C00000042420F4B5B6803F00C02082A01D0FC
:10233C000D487047C3F383420C49885C13F4803F0B
:10234C000BD0084B5B68C3F34043094AD35C064A85
:10235C0002FB00F0B0FBF3F07047064B03FB00F000
:10236C00704700BF0010024000127A008070000815
:10237C007C70000800093D00002800F0A08070B5BA
:10238C000D460446524B1B6803F007038B420BD2DD
:10239C004F4A136823F007030B431360136803F0D1
:1023AC0007038B4240F08D80236813F0020F17D087
:1023BC0013F0040F04D0474A536843F4E0635360AE
:1023CC00236813F0080F04D0424A536843F4605357
:1023DC005360404A536823F0F003A1680B435360E9
:1023EC00236813F0010F31D06368012B20D0022B2E
:1023FC0025D0384A126812F0020F64D035494A6869
:10240C0022F0030213434B60FFF768FD0646314B85
:10241C005B6803F00C036268B3EB820F16D0FFF716
:10242C005DFD801B41F288339842F0D9032045E0D2
:10243C00284A126812F4003FE0D101203EE0254A00
:10244C00126812F0007FD9D1012037E0204B1B68B5
:10245C0003F00703AB420AD91D4A136823F00703A4
:10246C002B431360136803F00703AB422DD1236891
:10247C0013F0040F06D0174A536823F4E063E168A5
:10248C000B435360236813F0080F07D0114A5368AD
:10249C0023F46053216943EAC1035360FFF742FF01
:1024AC000C4B5B68C3F303130B4AD35CD8400B4B48
:1024BC0018600B4B1868FFF7CDFC002070BD012095
:1024CC0070470120FAE70120F8E70120F6E700BF8A
:1024DC000020024000100240AC70000858000020A0
:1024EC0054000020014B1868704700BF58000020B2
:1024FC0008B5FFF7F7FF044B5B68C3F30223034AED
:10250C00D35CD84008BD00BF00100240A470000886
:10251C0008B5FFF7E7FF044B5B68C3F3C223034A1C
:10252C00D35CD84008BD00BF00100240A470000866
:10253C0070B582B00446036813F0010F36D03F4BE0
:10254C00DB6913F0805F49D13C4BDA6942F0805271
:10255C00DA61DB6903F080530193019B0125384B51
:10256C001B6813F4807F3BD0344B1B6A13F440730D
:10257C0013D0626802F440729A420ED02F4A136A4A
:10258C0023F440702F490126C1F840640026C1F89D
:10259C004064106213F0010F36D1284A136A23F4F9
:1025AC00407361680B431362002D3ED1236813F016
:1025BC00020F06D0214A536823F44043A1680B4311
:1025CC005360236813F0100F34D01C4A536823F463
:1025DC008003E1680B43536000202CE00025BEE72C
:1025EC00174A136843F480731360FFF777FC0646B1
:1025FC00134B1B6813F4807FB6D1FFF76FFC801B65
:10260C006428F5D9032016E0FFF768FC06460B4B4F
:10261C001B6A13F0020FC0D1FFF760FC801B41F264
:10262C0088339842F3D9032005E0D36923F0805313
:10263C00D361BBE7002002B070BD00BF00100240A8
:10264C00007000400000424208B502284ED010280D
:10265C0003D0012828D0002052E02B4B5A68186870
:10266C0010F080704CD0C2F383432849C85C12F43C
:10267C00803F15D0244B5B68C3F34043244AD25CA3
:10268C00244BB3FBF2F303FB00F01F4B5B6813F41A
:10269C00800F35D14000204BA3FB003040082FE0C9
:1026AC001E4B03FB00F0F0E7174B1B6A40F20232A3
:1026BC001A40B2F5817F24D003F44073B3F5007F48
:1026CC0004D0B3F5407F09D0002019E00E4A526ABD
:1026DC0012F0020FF5D049F6404011E00A4B186891
:1026EC0010F400300CD04FF2244009E0FFF710FF3B
:1026FC00054B5B68C3F3813301335B00B0FBF3F034
:10270C0008BD4FF40040FBE7001002409470000835
:10271C009070000800127A00ABAAAAAA00093D002A
:10272C0070B582B00024A446A1E07E4DAB4214D01B
:10273C000CD8A5F58015AB420FD005F57025AB4232
:10274C000BD0A5F58015AB4210D106E0764DAB420F
:10275C0003D005F58035AB4208D18B68002B50D0E7
:10276C00012B49D04261082400E0CC68BEF1FF0F78
:10277C0049D806464FEA8C0233680F25954023EA68
:10278C00050304FA02F2134333604B6813F0805FC5
:10279C006BD0664B9A6942F001029A619B6903F017
:1027AC0001030193019B4FEA9C02951C604B53F86B
:1027BC0025600CF00305AD000F23AB4026EA0306A1
:1027CC005C4B984226D003F58063984200F08C80D5
:1027DC0003F58063984200F0898003F5806398428A
:1027EC0016D0042317E0CC680434BFE7CC68083457
:1027FC00BCE7CC680C34B9E702610824B6E70024C6
:10280C00B4E70424B2E7061DACF108029200B3E76A
:10281C00032300E00023AB4033430232444D45F820
:10282C0022304B6813F4801F62D0434A936843EA0A
:10283C000E0393604B6813F4001F5FD03E4AD368BD
:10284C0043EA0E03D3604B6813F4003F5CD03A4A62
:10285C00536843EA0E0353604B6813F4803F59D01E
:10286C00354A136843EA0E0313600CF1010C0B6834
:10287C0033FA0CF254D0012202FA0CF203EA020EE3
:10288C0032EA0303F1D14B68122B3FF64EAF122BF9
:10289C003FF66CAF01A555F823F000BF6727000881
:1028AC0077270008F92700080B280008792700086B
:1028BC00792700087927000879270008792700086C
:1028CC00792700087927000879270008792700085C
:1028DC00792700087927000879270008792700084C
:1028EC00F3270008FF270008012394E7022392E74F
:1028FC00114A936823EA0E0393609BE70E4AD36850
:10290C0023EA0E03D3609EE70B4A536823EA0E03B7
:10291C005360A1E7084A136823EA0E031360A4E787
:10292C0002B070BD000022100000311000100240F7
:10293C000000014000080140000401400AB101619F
:10294C007047090401617047C36801EA030221EA78
:10295C00030141EA02410161704730B40124056C66
:10296C00AC40C56B6C60046863604368102B05D089
:10297C00036899600368DA6030BC704703689A603A
:10298C000368D960F8E7000050B310B40246016840
:10299C00144B0B441448A0FB03031B099B0013644A
:1029AC00124BD363022382F8213008686FF30D10A9
:1029BC00536894682343D4682343146923435469AC
:1029CC00234394692343D469234303430B600020BE
:1029DC009063012382F8213082F8200010BC7047EC
:1029EC0001207047F8FFFDBFCDCCCCCC00000240DD
:1029FC0038B5044690F82000012832D0012084F824
:102A0C00200094F82100C0B2012804D0002384F8DF
:102A1C002030022038BD022084F821000020A06361
:102A2C002568286820F0010028602046FFF795FFF4
:102A3C00E36A5BB12268136843F00E0313602268EB
:102A4C00136843F0010313600020E3E72268136866
:102A5C0023F0040313602268136843F00A03136025
:102A6C00EDE70220D6E7000038B5C36B1A6804689E
:102A7C002568016C04238B40134235D015F0040FEC
:102A8C0032D0236813F0200F03D1236823F0040302
:102A9C0023600368434A934214D01432934218D0F3
:102AAC001432934217D01432934217D014329342FB
:102ABC0017D01432934202D04FF0806203E04FF4EF
:102ACC00800200E00422384B5A60C36A03B1984775
:102ADC0038BD4022F7E74FF48062F4E74FF48042B0
:102AEC00F1E74FF48022EEE702238B4013423CD0F7
:102AFC0015F0020F39D0236813F0200F06D123688C
:102B0C0023F00A032360012380F821300368254A4F
:102B1C00934214D0143293421CD0143293421BD0E3
:102B2C00143293421BD0143293421BD01432934272
:102B3C0002D04FF0007203E04FF4001200E00222CA
:102B4C00194B5A60002380F82030836A002BBFD0C9
:102B5C009847BDE72022F3E74FF40072F0E74FF4FB
:102B6C000052EDE74FF40032EAE708238B401342A2
:102B7C00AED015F0080FABD0236823F00E03236002
:102B8C00026CC16B012303FA02F24A60836380F882
:102B9C002130002380F82030036B002B98D098470D
:102BAC0096E700BF0800024000000240002808DB46
:102BBC000901C9B200F1604000F5614080F80013D2
:102BCC00704700F00F000901C9B2014B195470474E
:102BDC0014ED00E000B500F00700C0F1070CBCF1EB
:102BEC00040F28BF4FF0040C031D062B0FD9C31E76
:102BFC004FF0FF3E0EFA0CF021EA000199400EFA5C
:102C0C0003FE22EA0E0241EA02005DF804FB0023F7
:102C1C00EEE70000074AD36823F4E0631B041B0CA7
:102C2C00000200F4E060034343F0BF6343F400335D
:102C3C00D360704700ED00E010B50446054BD86832
:102C4C00C0F30220FFF7C6FF01462046FFF7AEFF98
:102C5C0010BD00BF00ED00E0002807DB00F01F02F4
:102C6C00400901239340024A42F82030704700BFCC
:102C7C0000E100E00138B0F1807F0BD24FF0E0238F
:102C8C005861054AF02182F8231000209861072230
:102C9C001A6170470120704700ED00E030B4026A01
:102CAC00036A23F0010303624568836923F073030D
:102CBC000C681C4322F002028B6813430B4A9042AF
:102CCC0006D0456084614A684263036230BC704739
:102CDC0023F00803CA681A4322F0040325F4407554
:102CEC004A692A438D691543EBE700BF002C01406C
:102CFC0030B4036A026A22F4807202624468C269C8
:102D0C0022F073020D68154323F400738A6843EABA
:102D1C0002230D4A904206D04460C5614A68C263E2
:102D2C00036230BC704723F40063CA6843EA022391
:102D3C0023F4806324F440544A6944EA02148A69F7
:102D4C0044EA0214E8E700BF002C014030B4036AE7
:102D5C00026A22F4805202624468C26922F4E6429A
:102D6C000D6842EA052223F400538D6843EA0533CB
:102D7C00074DA84206D04460C2614A6802640362EF
:102D8C0030BC704724F480444D6944EA8514F2E762
:102D9C00002C014010B4036A046A24F0010404629C
:102DAC00846924F0F00C4CEA021223F00A030B4362
:102DBC008261036210BC704710B4036A046A24F089
:102DCC0010040462846924F4704C4CEA023223F03F
:102DDC00A00343EA01138261036210BC704783684D
:102DEC0023F070030B4343F007038360704700002C
:102DFC0090F83D30DBB2012B22D1022380F83D301C
:102E0C000368114A934210D0B3F1804F0DD0A2F554
:102E1C009432934209D002F58062934205D01A682D
:102E2C0042F001021A60002070479A6802F0070213
:102E3C00062A07D01A6842F001021A600020704777
:102E4C000120704700207047002C014090F83D3065
:102E5C00DBB2012B27D1022380F83D300268D36806
:102E6C0043F00103D3600368114A934210D0B3F1CD
:102E7C00804F0DD0A2F59432934209D002F58062B6
:102E8C00934205D01A6842F001021A600020704784
:102E9C009A6802F00702062A07D01A6842F001026B
:102EAC001A6000207047012070470020704700BF57
:102EBC00002C01400268D36823F00103D36003683F
:102ECC00196A41F21112114208D1196A40F24442B6
:102EDC00114203D11A6822F001021A60012380F812
:102EEC003D3000207047704770477047704770B591
:102EFC0004460368DE681D6915F0020F10D016F049
:102F0C00020F0DD06FF002021A61012303770368E0
:102F1C009B6913F0030F5ED0FFF7E6FF00232377C6
:102F2C0015F0040F12D016F0040F0FD023686FF0B9
:102F3C0004021A610223237723689B6913F4407FF0
:102F4C004FD02046FFF7D0FF0023237715F0080F52
:102F5C0012D016F0080F0FD023686FF008021A6118
:102F6C00042323772368DB6913F0030F40D020463A
:102F7C00FFF7BAFF0023237715F0100F12D016F0CD
:102F8C00100F0FD023686FF010021A6108232377FB
:102F9C002368DB6913F4407F31D02046FFF7A4FF90
:102FAC000023237715F0010F02D016F0010F2DD15D
:102FBC0015F0800F02D016F0800F2FD115F0400FB6
:102FCC0002D016F0400F31D115F0200F02D016F0C0
:102FDC00200F33D170BDFFF786FF2046FFF785FF2A
:102FEC009CE72046FFF77FFF2046FFF77EFFABE70D
:102FFC002046FFF778FF2046FFF777FFBAE7204619
:10300C00FFF771FF2046FFF770FFC9E723686FF0E9
:10301C0001021A61204602F001FEC9E723686FF035
:10302C0080021A61204600F029FBC7E723686FF085
:10303C0040021A612046FFF759FFC5E723686FF07D
:10304C0020021A61204600F018FBC3E703681F4AF0
:10305C0090420AD0B0F1804F07D0A2F59432904242
:10306C0003D002F58062904203D123F070034A68CA
:10307C001343164A90420AD0B0F1804F07D0A2F504
:10308C009432904203D002F58062904203D123F433
:10309C004073CA68134323F080034A6913430360E7
:1030AC008B68C3620B688362084B98420AD0012379
:1030BC004361036913F0010F03D0036923F001038B
:1030CC00036170470B690363F1E700BF002C0140FB
:1030DC0040B310B5044690F83D30F3B1022384F8A8
:1030EC003D30214651F8040BFFF7B0FF012384F863
:1030FC00463084F83E3084F83F3084F8403084F811
:10310C00413084F8423084F8433084F8443084F8F9
:10311C00453084F83D30002010BD80F83C30FEF77F
:10312C00EFFADBE70120704740B310B5044690F886
:10313C003D30F3B1022384F83D30214651F8040BA5
:10314C00FFF784FF012384F8463084F83E3084F87E
:10315C003F3084F8403084F8413084F8423084F8B1
:10316C00433084F8443084F8453084F83D300020F6
:10317C0010BD80F83C30FEF77DFADBE7012070478C
:10318C0030B4036A026A22F0100202624468826957
:10319C0022F4E6420D6842EA052223F020038D68F2
:1031AC0043EA05130C4DA84206D0446082614A687C
:1031BC008263036230BC704723F08003CD6843EA1E
:1031CC00051323F0400324F440644D6944EA85045C
:1031DC008D6944EA8504E8E7002C014038B590F885
:1031EC003C30012B66D004460D46012380F83C3060
:1031FC000C2A5AD8DFE802F0075959591B5959596A
:10320C003059595944000068FFF748FD226893690A
:10321C0043F0080393612268936923F004039361DC
:10322C002268936929690B43936100203EE0006892
:10323C00FFF7A6FF2268936943F400639361226849
:10324C00936923F48063936122689369296943EA43
:10325C0001239361002029E00068FFF749FD2268F3
:10326C00D36943F00803D3612268D36923F00403C4
:10327C00D3612268D36929690B43D361002015E01F
:10328C000068FFF763FD2268D36943F40063D361E0
:10329C002268D36923F48063D3612268D3692969D6
:1032AC0043EA0123D361002000E00120002384F8CD
:1032BC003C3038BD0220FCE710B4846824F47F4C09
:1032CC0042EA03220A4342EA0C02826010BC7047B5
:1032DC0090F83C30012B78D010B50446012380F8CF
:1032EC003C30022380F83D300268936823F47F431E
:1032FC0023F0770393600B68602B4CD023D8402BC2
:10330C0054D011D8202B03D00AD80BB1102B05D1D7
:10331C0019462068FFF763FD002028E0012026E015
:10332C00302BF5D0012022E0502B0AD1CA68496815
:10333C000068FFF72FFD50212068FFF750FD00209B
:10334C0015E0012013E0B3F5805F3AD0B3F5005FD0
:10335C0014D0702B37D1CB684A6889680068FFF7A6
:10336C00ABFF2268936843F077039360002001233E
:10337C0084F83D30002384F83C3010BDCB684A689B
:10338C0089680068FFF798FF2268936843F48043CC
:10339C0093600020EBE7CA6849680068FFF70CFDF2
:1033AC0060212068FFF71BFD0020E0E7CA68496830
:1033BC000068FFF7EFFC40212068FFF710FD0020AC
:1033CC00D5E70020D3E70120D1E70220704701F0B8
:1033DC001F014FF0010C0CFA01FC036A23EA0C03E9
:1033EC000362036A8A4013430362704710B50446B4
:1033FC00084651BB94F83E30DBB2013B18BF0123A9
:10340C00002B5BD1002839D1022384F83E300122F5
:10341C0001462068FFF7DBFF23682A4A93423DD020
:10342C002368284A93423ED0B3F1804F3BD0A2F59B
:10343C009432934237D002F58062934233D01A68AB
:10344C0042F001021A60002039E0042908D0082952
:10345C000DD094F84130DBB2013B18BF0123CFE70C
:10346C0094F83F30DBB2013B18BF0123C8E794F856
:10347C004030DBB2013B18BF0123C1E7042805D063
:10348C00082807D0022384F84130C0E7022384F8CF
:10349C003F30BCE7022384F84030B8E75A6C42F462
:1034AC0000425A64BCE79A6802F00702062A07D069
:1034BC001A6842F001021A60002000E0012010BDE1
:1034CC000020FCE7002C014001F00F014FF0040C30
:1034DC000CFA01FC036A23EA0C030362036A8A40B8
:1034EC00134303627047000010B50446084659BBED
:1034FC0094F84230DBB2013B18BF0123002B57D1AB
:10350C0000283AD1022384F8423004220146206874
:10351C00FFF7DAFF2268536C43F4004353642368CB
:10352C00254A934239D0B3F1804F36D0A2F594326C
:10353C00934232D002F5806293422ED01A6842F048
:10354C0001021A60002034E0042908D008290DD0AB
:10355C0094F84530DBB2013B18BF0123CEE794F859
:10356C004330DBB2013B18BF0123C7E794F844306A
:10357C00DBB2013B18BF0123C0E7042805D00828A3
:10358C0007D0022384F84530BFE7022384F8433088
:10359C00BBE7022384F84430B7E79A6802F00702CD
:1035AC00062A07D01A6842F001021A60002000E0D7
:1035BC00012010BD0020FCE7002C014090F83C20BD
:1035CC00012A2CD010B40346012280F83C200222A0
:1035DC0080F83D2002685068946820F0700C0868F0
:1035EC0040EA0C0050601A680E4882420AD0B2F1D0
:1035FC00804F07D0A0F59430824203D000F5806054
:10360C00824204D124F08004496821439160012254
:10361C0083F83D20002083F83C0010BC704702204A
:10362C00704700BF002C0140024690F83C30012B43
:10363C0021D0012380F83C30CB6823F44073886898
:10364C00034323F480634868034323F4006308684E
:10365C00034323F480530869034323F4005348695C
:10366C00034323F48043C9690B4311684B64002066
:10367C0082F83C0070470220704770477047026820
:10368C0002F10C0353E8003F23F490730C3242E830
:10369C0000310029F3D1026802F1140353E8003F12
:1036AC0023F00103143242E800310029F3D1036BFB
:1036BC00012B05D0202380F8423000230363704790
:1036CC00026802F10C0353E8003F23F010030C32A4
:1036DC0042E800310029F3D1ECE7000010B50446B4
:1036EC000268136923F44053C1680B431361836868
:1036FC000269134342691A430168CB6823F4B0533F
:10370C0023F00C031343CB600268536923F440731A
:10371C0081690B4353610268134B9A4220D0FEF728
:10372C00E7FE024602EB820202EB820263689B0018
:10373C00B2FBF3F20D48A0FB02314909642303FBF1
:10374C0011231B013233A0FB03035B0903F0F002CE
:10375C0002EB011203F00F03216813448B6010BDC0
:10376C00FEF7D6FE0246DDE7003801401F85EB511F
:10377C002DE9F04383B005460E4617469946DDF811
:10378C0028802B681C6836EA04040CBF0124002432
:10379C00BC4228D1B8F1FF3FF3D0FEF79FFBA0EB62
:1037AC000900404523D8B8F1000F22D02B68DA6805
:1037BC0012F0040FE5D0802EE3D0402EE1D01A6831
:1037CC0012F0080FDDD0002401941A6801925B6896
:1037DC000193019B2846FFF752FF08236B6485F881
:1037EC004040012000E0002003B0BDE8F08303203E
:1037FC00FAE70320F8E760B310B5044690F84130BF
:10380C0013B3242384F841302268D36823F4005383
:10381C00D3602046FFF762FF2268136923F49043BC
:10382C0013612268536923F02A0353612268D36819
:10383C0043F40053D36000206064202384F84130AB
:10384C0084F84230606310BD80F84030FDF798FF7B
:10385C00D7E7012070472DE9F04182B01E4690F861
:10386C004130DBB2202B56D104460D469046002940
:10387C0055D00AB901204FE000234364212380F87E
:10388C004130FEF72BFB0746A4F82480A4F82680D1
:10389C00A368B3F5805F02D04FF0000814E02369F1
:1038AC002BB34FF000080FE0202384F841300320A5
:1038BC0032E038F8023B2268C3F308035360E28C11
:1038CC0092B2013A92B2E284E38C9BB293B100962D
:1038DC003B46002280212046FFF74AFF0028E3D117
:1038EC00002DE6D015F8012B23685A60E7E7A846AF
:1038FC000025E9E700963B46002240212046FFF7D1
:10390C0037FF18B9202384F8413005E0202384F8D0
:10391C004130032000E0022002B0BDE8F08101201C
:10392C00FAE738B512F4804F44D00468B4F850303C
:10393C009BB291F800C003EBCC03023304EB4304BD
:10394C00B4F80044C4F309048B69A34228D31B1BAD
:10395C008B618B697BB9056835F82C309BB223F4ED
:10396C00804323F0700383F4005343F4004343F08B
:10397C00800325F82C3012F0400F0ED002680D7821
:10398C0032F825309BB223F4E04323F0700343F468
:10399C00004343F0C00322F8253024B9204638BD3B
:1039AC0000238B61D5E723460A894969006801F039
:1039BC0057FFF3E70468B4F850309BB291F800C09D
:1039CC0003EBCC03063304EB4304B4F80044C4F318
:1039DC0009048B69A3422FD31B1B8B618B697BB9A9
:1039EC00056835F82C309BB223F4804323F0700328
:1039FC0083F4005343F4004343F0800325F82C3048
:103A0C0012F0400F0FD1026891F800C032F82C3040
:103A1C009BB223F4E04323F0700343F4004343F0E0
:103A2C00C00322F82C30002CB8D023464A894969AF
:103A3C00006801F015FFB1E700238B61CEE738B5C4
:103A4C0000286ED0044690F89132A3B1032384F879
:103A5C00913200236371206800F095FF234653F8E0
:103A6C00040B0ECB00F07FFF50B1022384F891328F
:103A7C000125284638BD80F8903202F06FF9E5E751
:103A8C000021206800F089FF034608B9024615E0C2
:103A9C00022384F891320125EBE702EB820104EB5F
:103AAC00C101012048740A740020C874086248627D
:103ABC00013202EB8201C9006050D2B220799042EF
:103ACC00EBD816E003EB830204EBC202002182F870
:103ADC00511182F8503182F85311C2F86011C2F8BA
:103AEC00641103EB830204EBC202C2F868110133C8
:103AFC00DBB29842E6D8234653F8040B0ECB00F009
:103B0C004EFF054620B1022384F891320125B0E71F
:103B1C0000236373012384F89132206801F09EFA2C
:103B2C00A7E70125A5E738B590F89032012B11D005
:103B3C000446012580F89052006800F01BFF2946CE
:103B4C00204600F00FFF206801F086FA002084F870
:103B5C00900238BD0220FCE770B505460C461646AF
:103B6C0012F0400F00F00E810268B2F850309BB298
:103B7C00097803EBC103023302EB4302B2F80024D1
:103B8C00C2F30902A36993424ED99B1AA361A3699C
:103B9C00002B66D16378002B49D12B68B3F85020E9
:103BAC0092B2134403EB0113B3F80424C2F30902D9
:103BBC00A3F80424B3F804246FEA42426FEA524299
:103BCC0092B2A3F804242B686278002A3CD1B3F893
:103BDC00502092B21344227803EB0213B3F80C2456
:103BEC00C2F30902A3F80C24B3F80C246FEA424286
:103BFC006FEA524292B2A3F80C242178284602F0C4
:103C0C00E1F816F4804F41D02A68217832F821303F
:103C1C009BB223F4E04323F0700343F4404343F09E
:103C2C00800322F8213031E00023A361AFE7012BA0
:103C3C00C9D12B68B3F8502092B2134403EB011393
:103C4C000022A3F80424BEE7012AD6D1B3F85020F1
:103C5C0092B21344227803EB02130022A3F80C2433
:103C6C00CBE716F4804F0DD0286830F821309BB28A
:103C7C0023F4E04323F0700343F4404343F0800308
:103C8C0020F8213094F82430012B12D02A682178A6
:103C9C0032F821309BB223F4E04323F0400383F04D
:103CAC00300343F4004343F0800322F8213000201A
:103CBC0070BD636913446361E3691344E361216A72
:103CCC002369994224D3C91A21626278002A44D10B
:103CDC002A68B2F8501089B20A44217802EB01121A
:103CEC00B2F80414C1F30901A2F804143E2B1BD939
:103CFC00580913F01F0F00D10138B2F8041489B21F
:103D0C00800280B2014341F40041A2F8041426E081
:103D1C0021B9002384F824301346D6E7002384F815
:103D2C00243023620B46D0E74BB9B2F804146FEA87
:103D3C0041416FEA514189B2A2F804140FE05908CD
:103D4C0013F0010F00D00131B2F8040480B28902E3
:103D5C0089B20143A2F8041401E0012A06D09BB2F7
:103D6C0022896169286801F081F98FE72A68B2F825
:103D7C00501089B20A44217802EB011299B2A2F8D0
:103D8C000414ECE70268B2F850309BB2097803EBEC
:103D9C00C103063302EB4302B2F80024C2F309025A
:103DAC00A36993424FD39B1AA361A369002B67D1DC
:103DBC006378002B4AD12B68B3F8502092B213448D
:103DCC0003EB0113B3F80424C2F30902A3F804248F
:103DDC00B3F804246FEA42426FEA524292B2A3F85B
:103DEC0004242B686278002A3DD1B3F8502092B29B
:103DFC001344227803EB0213B3F80C24C2F3090228
:103E0C00A3F80C24B3F80C246FEA42426FEA524236
:103E1C0092B2A3F80C242178284601F0D3FF16F4B3
:103E2C00804F7FF433AF2A68217832F821309BB26F
:103E3C0023F4E04323F0700343F4404343F0800346
:103E4C0022F8213022E70023A361AEE7012BC8D171
:103E5C002B68B3F8502092B2134403EB01130022E9
:103E6C00A3F80424BDE7012AD5D1B3F8502092B2AF
:103E7C001344227803EB02130022A3F80C24CAE7A4
:103E8C0016F4804F0DD1286830F821309BB223F402
:103E9C00E04323F0700343F4404343F0800320F8E5
:103EAC00213094F82430012B7FF4F0AE6369134475
:103EBC006361E3691344E361216A2369994224D362
:103ECC00C91A21622A686178002943D1B2F85010CE
:103EDC0089B20A44217802EB0112B2F80C14C1F336
:103EEC000901A2F80C143E2B1BD9580913F01F0F13
:103EFC0000D10138B2F80C1489B2800280B20143AF
:103F0C0041F40041A2F80C1426E021B9002384F8F6
:103F1C0024301346D6E70023236284F824300B4662
:103F2C00D0E74BB9B2F80C146FEA41416FEA51413A
:103F3C0089B2A2F80C140FE0590813F0010F00D04D
:103F4C000131B2F80C0480B2890289B20143A2F8A3
:103F5C000C1401E0012906D09BB2628961692868C2
:103F6C0001F084F892E6B2F8501089B20A44217834
:103F7C0002EB011299B2A2F80C14EDE72DE9F04115
:103F8C0005462868B0F8443013F4004F00F09D82C9
:103F9C00B0F84440A3B214F00F0440F0DE8013F0EC
:103FAC00100F6BD003889AB213F4006F40F0998015
:103FBC0012F4004FE5D0038823F070031B051B0D92
:103FCC0043F0800303802868B0F850309BB295F81A
:103FDC00502103EBC203063300EB4303B3F8003468
:103FEC00C3F30903C5F86C318BB1D5F8641171B109
:103FFC00B5F8562101F034FCD5F86431D5F86C21B4
:10400C001344C5F864310021284601F0CFFE2A681C
:10401C00138899B213F4006FB3D101F44051B1F588
:10402C00405FAED0B2F850309BB21A44B2F80C34A8
:10403C00C3F30903A2F80C34D5F860313E2B73D9C5
:10404C00590913F01F0F00D10139B2F80C349BB28F
:10405C00890289B20B4343F40043A2F80C342A685A
:10406C0013889BB223F4804323F0700383F44053F2
:10407C0043F4004343F08003138082E703889BB230
:10408C0023F4E14323F070036FEA43436FEA534395
:10409C009BB203802A68B2F850309BB2297C03EBA8
:1040AC00C103023302EB4302B2F80034C3F3090339
:1040BC00EB626A6A1A446A620021284601F082FEA9
:1040CC006B7B002B3FF45DAFAB6A002B7FF459AFD9
:1040DC006B7B2A6843F08003A2F84C3000236B738F
:1040EC004FE7B0F850309BB295F8502103EBC20368
:1040FC00063300EB4303B3F80034C3F30903C5F8EC
:10410C006C31B5F8562105F5267101F0A9FB2A682A
:10411C00138823F070031B051B0D43F080031380E1
:10412C00284601F03BFE2CE74BB9B2F80C346FEA91
:10413C0043436FEA53439BB2A2F80C348FE7590800
:10414C0013F0010F00D00131B2F80C3498B28B028D
:10415C009BB20343A2F80C3481E730F824309EB2B2
:10416C0013F4004F50D116F0800F3FF40AAF04EB5C
:10417C008401C900103129442A6832F824309BB2DA
:10418C0023F4E14323F070036FEA43436FEA534394
:10419C009BB222F8243004EB840305EBC303DB7CD5
:1041AC00012B00F0F28016F4807F40F089812868A2
:1041BC00B0F850309BB204EB840205EBC202167CC3
:1041CC0003EBC603023300EB4303B3F80034C3F331
:1041DC000903621C02EB820255F832209A4240F22B
:1041EC005281671C07EB8707D21A45F83720621CEF
:1041FC0002EB820255F83220002A40F04B81314606
:10420C00284601F0DFFDBCE630F8243023F07003C3
:10421C001B051B0D43F0800320F8243004EB8401B4
:10422C00C90001F5A87105EB010804EB840305EB4B
:10423C00C30393F85C31002B42D12868B0F850309E
:10424C009BB204EB840205EBC20292F8502103EB03
:10425C00C203063300EB4303B3F80074C7F309073A
:10426C0017BB04EB840305EBC303D3F86C213A446E
:10427C00C3F86C21D3F864213A44C3F86421D3F811
:10428C0068313BB104EB840305EBC303D3F8603115
:10429C009F4275D204EB840305EBC30393F85011D2
:1042AC00284601F083FD5EE704EB840105EBC101B8
:1042BC003B46B1F85621D1F8641101F0D1FAD0E7A0
:1042CC0004EB840305EBC30393F85331022B35D075
:1042DC00296804EB840205EBC20292F8500131F814
:1042EC0020309BB223F4E04323F0700343F40043EB
:1042FC0043F0C00321F82030286892F8502130F8A0
:10430C00223013F4804F20D0B0F850309BB203EB26
:10431C00C203023300EB4303B3F80074C7F309077D
:10432C00002F9ED004EB840105EBC1013B46B1F894
:10433C005821D1F8641101F093FA92E732464146C4
:10434C002846FFF7EEFA07468BE7B0F850309BB2E1
:10435C0003EBC203063300EB4303B3F80074C7F35B
:10436C000907002F3FF47DAF04EB840105EBC1017D
:10437C003B46B1F85A21D1F8641101F071FA70E79B
:10438C004146286800F085FEEDE6631C03EB8303D1
:10439C00DB000022EA5004EB840305EBC3031B7F14
:1043AC001BB316F0400F3BD004EB840305EBC303A7
:1043BC005B7C1BBB2B68B3F8502092B2134404EB0C
:1043CC00840205EBC202127C03EB0213B3F8042443
:1043DC00C2F30902A3F80424B3F804246FEA42429E
:1043EC006FEA524292B2A3F8042404EB840405EB66
:1043FC00C404217C284601F0E5FCC2E5012BF4D174
:10440C002B68B3F8502092B2134404EB840205EBF2
:10441C00C202127C03EB02130022A3F80424E4E78B
:10442C002B6804EB840205EBC202527CD2B9B3F8C0
:10443C00502092B2134404EB840205EBC202127CAE
:10444C0003EB0213B3F80C24C2F30902A3F80C24F7
:10445C00B3F80C246FEA42426FEA524292B2A3F8CC
:10446C000C24C2E7012AC0D1B3F8502092B21344F5
:10447C0004EB840205EBC202127C03EB0213002254
:10448C00A3F80C24B1E7621C02EB8202D2000027D5
:10449C00AF50ACE604EB840205EBC202566A1E4434
:1044AC005662013404EB840205EBC202526804EB41
:1044BC00840405EBC4041344636000F0EAFD60E57A
:1044CC0032462846FFF748FB5BE50020BDE8F0814B
:1044DC0090F89032012B0CD010B50446012380F8D3
:1044EC0090324173006800F0B1FD002084F8900216
:1044FC0010BD0220704710B584B00446006800F06F
:10450C00AFFD10F4004F20D110F4806F21D110F4C6
:10451C00804F2FD110F4005F37D110F4805F3ED163
:10452C0010F4006F40F0878010F4007F40F0AE80F4
:10453C0010F4807F27D02268B2F844309BB223F469
:10454C0080739BB2A2F844301DE02046FFF716FDA5
:10455C0019E02268B2F844309BB223F480639BB21A
:10456C00A2F84430204601F03EFC00212046FFF723
:10457C00AFFF08E02268B2F844309BB223F48043CA
:10458C009BB2A2F8443004B010BD2268B2F844309B
:10459C009BB223F400539BB2A2F84430F3E7226899
:1045AC00B2F840309BB223F004039BB2A2F8403027
:1045BC002268B2F840309BB223F008039BB2A2F8F9
:1045CC004030204601F021FC2268B2F844309BB206
:1045DC0023F480539BB2A2F84430D4E7226832F81B
:1045EC00231004AA02EB430222F8101C0133DBB2A5
:1045FC00072BF3D92268B2F840309BB243F0010389
:10460C00A2F840302268B2F840309BB223F001038C
:10461C009BB2A2F840302368B3F8442012F4806FA8
:10462C00F9D0B3F8442092B222F4806292B2A3F88B
:10463C00442000230BE00023DAE7226804A901EBF5
:10464C00430131F8101C22F823100133DBB2072B85
:10465C00F3D92268B2F840309BB243F00803A2F8B9
:10466C0040302268B2F844309BB223F400639BB212
:10467C00A2F844302268B2F840309BB243F00403F5
:10468C00A2F84030204601F0BAFB7CE72268B2F871
:10469C0044309BB223F400739BB2A2F84430204602
:1046AC0001F09BFB6FE710B50446084611F0800F34
:1046BC0026D101F0070C0CEB8C0E4FEACE0E0EF54A
:1046CC00A87E04EB0E010CEB8C0C04EBCC0C4FF025
:1046DC00000E8CF851E100F0070008700A61CB70F5
:1046EC00022B1DD094F89032012B1CD0012384F89E
:1046FC009032206800F064F9002084F8900210BD1C
:10470C0001F0070C0CEB8C01C900103121440CEBAF
:10471C008C0C04EBCC0C4FF0010E8CF811E0DAE7AA
:10472C0000230B71DEE70220E9E710B504460A46C8
:10473C0011F0800F1FD101F0070000EB8003DB00AC
:10474C0003F5A873E11800EB800004EBC000002314
:10475C0080F8513102F007020A7094F89032012B64
:10476C0017D0012384F89032206800F00EFB002053
:10477C0084F8900210BD01F0070000EB8003DB0011
:10478C001033E11800EB800004EBC00001234374EC
:10479C00E0E70220EEE710B501F0070C0CEB8C0102
:1047AC00C90001F5A8710CEB8C0E00EBCE0ECEF807
:1047BC006421CEF868310024CEF86C418EF851415A
:1047CC008EF850C10144006800F063FC204610BD17
:1047DC0001F0070101EB810100EBC100D0F86C0185
:1047EC00704738B501F0070C0CEB8C01C900103187
:1047FC000CEB8C0E00EBCE0ECEF824200CF101024B
:10480C0002EB820440F8343001258EF83450CEF897
:10481C00303000EBC402002454608EF811508EF836
:10482C0010C00144006800F034FC204638BD38B597
:10483C0001F007050279AA4235D304460B4611F064
:10484C00800F1ED101EB8101C90001F5A871014453
:10485C0003EB830300EBC303002283F851210123F4
:10486C008B700D7094F89032012B1ED0012384F8BC
:10487C009032206800F074FB7DB1002084F8900227
:10488C0038BD05EB8501C9001031014405EB8503EA
:10489C0000EBC30301225A74E1E704F5267120688A
:1048AC0000F0E2FBE9E70120EAE70220E8E70B462B
:1048BC00017903F00F02914234D310B5044613F082
:1048CC00800F21D103F0070202EB8201C90001F530
:1048DC00A871014402EB820200EBC202002082F8B4
:1048EC00510100228A7003F007030B7094F8903288
:1048FC00012B19D0012384F89032206800F055FB6D
:10490C00002084F8900210BD03F0070202EB820134
:10491C00C9001031014402EB820200EBC2020120FB
:10492C005074DEE7012070470220ECE711F0800F95
:10493C000BD001F0070101EB8101C90010310844D3
:10494C0052B90273C3800020704701EB8101C9008A
:10495C0001F5A8710844F3E70122027303811B0CD3
:10496C004381F0E7704784B004A800E90E000020F2
:10497C0004B0704703460020A3F844004FF43F42B4
:10498C00A3F840207047B0F8403023F47C535B040C
:10499C005B0CA0F84030002070470020704784B0BA
:1049AC00844604A800E90E000123ACF84030002036
:1049BC00ACF84000ACF84400ACF8500004B07047C0
:1049CC0010B5034691F800C030F82C2092B222F4B6
:1049DC00EC4222F0700292B2C878032861D8DFE86A
:1049EC0000F0555C0258002048F2800E42EA0E029C
:1049FC0023F82C2091F800C033F82C2092B222F42A
:104A0C00E04222F0700242EA0C0242EA0E0223F863
:104A1C002C200A7B002A40F0DC804A78002A51D0F6
:104A2C00B3F8502092B21A440C7802EB0412B1F88D
:104A3C0006C04FEA5C0C4FEA4C0CA2F800C40C7890
:104A4C0033F8242012F0400F0CD033F8242092B20B
:104A5C0022F4E04222F0700242F4004242F0C00222
:104A6C0023F82420CA78012A1DD0097833F8212094
:104A7C0092B222F4E04222F0400282F0200242F490
:104A8C00004242F0800223F8212017E142F4007228
:104A9C00AAE742F4C0620020A6E742F4806200203C
:104AAC00A2E70120A0E7097833F8212092B222F482
:104ABC00E04222F0400242F4004242F0800223F82D
:104ACC002120FBE0B3F8502092B21A440C7802EB90
:104ADC000412B1F806C04FEA5C0C4FEA4C0CA2F879
:104AEC0008C4B3F8502092B21A440C7802EB0412AA
:104AFC00B2F80CC4CCF3090CA2F80CC40C693E2C13
:104B0C0039D94FEA541E14F01F0F01D10EF1FF3E9C
:104B1C00B2F80CC41FFA8CFC4FEA8E2E1FFA8EFED4
:104B2C004CEA0E0C4CF4004CA2F80CC40C7833F884
:104B3C00242012F4804F0CD033F8242092B222F4AB
:104B4C00E04222F0700242F4404242F0800223F82C
:104B5C002420097869BB33F8212092B222F48042D8
:104B6C0022F0700282F4405242F4004242F0800281
:104B7C0023F82120A2E04CB9B2F80C446FEA44446B
:104B8C006FEA5444A4B2A2F80C44CFE74FEA540C99
:104B9C0014F0010F01D00CF1010CB2F80C44A4B2CA
:104BAC004FEA8C2C1FFA8CFC44EA0C04A2F80C443F
:104BBC00BCE733F8212092B222F4804222F070023A
:104BCC0082F4005242F4004242F0800223F8212089
:104BDC0074E0CA78022A72D00C7833F8242092B28E
:104BEC0022F4E24222F0700242F4004242F08002CF
:104BFC0023F82420B3F8502092B21A4491F800C044
:104C0C0002EB0C12B1F808C04FEA5C0C4FEA4C0CEA
:104C1C00A2F800C4B3F8502092B21A4491F800C024
:104C2C0002EB0C12B1F80AC04FEA5C0C4FEA4C0CC8
:104C3C00A2F808C44A78002A50D10C7833F8242002
:104C4C0012F4804F0CD033F8242092B222F4E042BC
:104C5C0022F0700242F4404242F0800223F82420F9
:104C6C000C7833F8242012F0400F0CD033F82420A9
:104C7C0092B222F4E04222F0700242F4004242F07E
:104C8C00C00223F8242091F800C033F82C2092B2F3
:104C9C0022F4804222F0700282F4405248F28004E6
:104CAC00224323F82C20097833F8212092B222F4E5
:104CBC00E04222F04002224323F8212010BD0C7860
:104CCC0033F8242092B222F4E04222F0700242F433
:104CDC00014242F0800223F824208BE70C7833F851
:104CEC00242012F4804F0CD033F8242092B222F4FA
:104CFC00E04222F0700242F4404242F0800223F87B
:104D0C0024200C7833F8242012F0400F0CD033F808
:104D1C00242092B222F4E04222F0700242F40042CB
:104D2C0042F0C00223F82420CA78012A1ED00C7845
:104D3C0033F8242092B222F4E04222F0400282F0B6
:104D4C00200242F4004242F0800223F82420097829
:104D5C0033F8212092B222F4804222F0700242F405
:104D6C00004242F0800223F82120A7E70C7833F8A8
:104D7C00242092B222F4E04222F0400242F400429B
:104D8C0042F0800223F82420E1E70B7B002B46D174
:104D9C004B7813B30A7830F8223013F0400F0CD054
:104DAC0030F822309BB223F4E04323F0700343F439
:104DBC00004343F0C00320F822300A7830F8223048
:104DCC009BB223F4E04323F0400343F4004343F04D
:104DDC00800320F82230002070470A7830F8223007
:104DEC0013F4804F0CD030F822309BB223F4E04304
:104DFC0023F0700343F4404343F0800320F8223047
:104E0C000A7830F822309BB223F4804323F07003ED
:104E1C0043F4004343F0800320F82230DBE74B7867
:104E2C00002B4ED10A7830F8223013F4804F0CD07E
:104E3C0030F822309BB223F4E04323F0700343F4A8
:104E4C00404343F0800320F822300A7830F82230B7
:104E5C0013F0400F0CD030F822309BB223F4E04317
:104E6C0023F0700343F4004343F0C00320F82230D6
:104E7C000A7830F822309BB223F4E04323F070031D
:104E8C0043F4004343F0C00320F822300A7830F892
:104E9C0022309BB223F4804323F0700348F2800C41
:104EAC0043EA0C0320F822300A7830F822309BB207
:104EBC0023F4E04323F0400343EA0C0320F82230B0
:104ECC0089E70A7830F8223013F4804F0CD030F890
:104EDC0022309BB223F4E04323F0700343F44043AD
:104EEC0043F0800320F822300A7830F8223013F097
:104EFC00400F0CD030F822309BB223F4E04323F067
:104F0C00700343F4004343F0C00320F822300A78C6
:104F1C0030F822309BB223F4E04323F0700343F4C7
:104F2C00404343F0800320F822300A7830F82230D6
:104F3C009BB223F4E04323F0400348F2800C43EA95
:104F4C000C0320F822300A7830F822309BB223F47C
:104F5C00804323F0700343EA0C0320F822303AE735
:104F6C004B788BB10A7830F822309BB223F4E043B3
:104F7C0023F0400383F0100343F4004343F0800319
:104F8C0020F82230002070470A7830F822309BB28B
:104F9C0023F4804323F0700383F4805343F40043E1
:104FAC0043F0800320F82230ECE70B7B002B4BD135
:104FBC004B7833B30A7830F8223013F0400F0CD012
:104FCC0030F822309BB223F4E04323F0700343F417
:104FDC00004343F0C00320F82230CB78012B33D0B0
:104FEC000A7830F822309BB223F4E04323F04003DC
:104FFC0083F0200343F4004343F0800320F8223075
:10500C0022E00A7830F8223013F4804F0CD030F8BC
:10501C0022309BB223F4E04323F0700343F440436B
:10502C0043F0800320F822300A7830F822309BB20B
:10503C0023F4804323F0700383F4405343F4004380
:10504C0043F0800320F822300020704711B98023F0
:10505C00A0F84C30002070470020704700207047AB
:10506C00B0F8440080B270470020704701335B08F1
:10507C0000EB420000F5806008E00A7891F801C06E
:10508C0042EA0C2220F8042B0231013B002BF4D114
:10509C00704770B505460C464A78012A3BD00B7B0D
:1050AC00002B40F0A6828B690A69934240F28482FD
:1050BC009B1A8B61B5F850309BB22B44217803EBD3
:1050CC000113B3F80C14C1F30901A3F80C143E2A14
:1050DC0040F27682510912F01F0F00D10139B3F85A
:1050EC000C2492B2890289B20A4342F40042A3F81A
:1050FC000C24227835F822309BB223F4804323F021
:10510C00700383F4405343F4004343F0800325F8C9
:10511C002230002070BD8E6909698E4200D90E467E
:10512C00237B73B3E378022B4DD0236A9B1B236242
:10513C00217835F8213013F0400F00F0F581002A6A
:10514C0040F0E281B5F850309BB22B4403EB0113D5
:10515C00B3F80C24C2F30902A3F80C243E2E40F23F
:10516C00BA81710916F01F0F00D10139B3F80C2464
:10517C0092B2890289B20A4342F40042A3F80C2489
:10518C00CBE1B6B23346E28861692846FFF76EFF81
:10519C00B5F850309BB22B44227803EB0213A3F8E2
:1051AC000464227835F822309BB223F4E04323F0D8
:1051BC00400383F0300343F4004343F0800325F8AD
:1051CC0022300020A6E7236A994280F0668122787B
:1051DC0035F822309BB223F4E04323F0700343F400
:1051EC00014343F0800325F82230236A9B1B236282
:1051FC00227835F8223013F0400F00F0A780637846
:10520C00B3BBB5F850309BB22B4403EB0213B3F88D
:10521C000C24C2F30902A3F80C243E2E0FD97109F9
:10522C0016F01F0F00D10139B3F80C2492B2890289
:10523C0089B20A4342F40042A3F80C241AE04EB996
:10524C00B3F80C246FEA42426FEA524292B2A3F8CE
:10525C000C240FE0720816F0010F00D00132B3F8E5
:10526C000C1489B2920292B20A43A3F80C2401E006
:10527C00012B30D0B3B2628961692846FFF7F6FE84
:10528C00636933446361236A226993422DD99B1B62
:10529C0023626378002B45D1B5F850309BB22B4478
:1052AC00227803EB0213B3F80424C2F30902A3F827
:1052BC0004243E2E1DD9710916F01F0F00D101399F
:1052CC00B3F8042492B2890289B20A4342F4004230
:1052DC00A3F8042428E0B5F850309BB22B4403EB20
:1052EC000213B2B2A3F80C24C4E7002222621E46B9
:1052FC00CFE74EB9B3F804246FEA42426FEA524248
:10530C0092B2A3F804240FE0720816F0010F00D03B
:10531C000132B3F8041489B2920292B20A43A3F890
:10532C00042401E0012B06D0B3B22289616928461E
:10533C00FFF79CFE35E7B5F850309BB22B44227832
:10534C0003EB0213B2B2A3F80424EDE76378B3BB0A
:10535C00B5F850309BB22B4403EB0213B3F8042482
:10536C00C2F30902A3F804243E2E0FD9710916F0DA
:10537C001F0F00D10139B3F8042492B2890289B20B
:10538C000A4342F40042A3F804241AE04EB9B3F8DD
:10539C0004246FEA42426FEA524292B2A3F8042408
:1053AC000FE0720816F0010F00D00132B3F80414AC
:1053BC0089B2920292B20A43A3F8042401E0012BB1
:1053CC0030D0B3B2228961692846FFF74FFE63697A
:1053DC0033446361236A226993422DD99B1B236258
:1053EC006378002B45D1B5F850309BB22B44227812
:1053FC0003EB0213B3F80C24C2F30902A3F80C2438
:10540C003E2E1DD9710916F01F0F00D10139B3F8CA
:10541C000C2492B2890289B20A4342F40042A3F8E6
:10542C000C2428E0B5F850309BB22B4403EB02134C
:10543C00B2B2A3F80424C4E7002222621E46CFE7CE
:10544C004EB9B3F80C246FEA42426FEA524292B260
:10545C00A3F80C240FE0720816F0010F00D00132F3
:10546C00B3F80C1489B2920292B20A43A3F80C243A
:10547C0001E0012B06D0B3B2628961692846FFF7BF
:10548C00F5FD8EE6B5F850309BB22B44227803EB39
:10549C000213B2B2A3F80C24EDE7217835F82120E1
:1054AC0092B222F4E24222F0700242F4004242F044
:1054BC00800225F82120B5F8502092B22A44217898
:1054CC0002EB01129BB2A2F80434228961692846CE
:1054DC00FFF7CCFD65E64EB9B3F80C246FEA4242F7
:1054EC006FEA524292B2A3F80C2416E0720816F03E
:1054FC00010F00D00132B3F80C1489B2920292B2AF
:10550C000A43A3F80C2408E0B5F850309BB22B44A6
:10551C0003EB0113B2B2A3F80C24B3B26289616934
:10552C002846FFF7A3FD3CE6B2BBB5F850309BB262
:10553C002B4403EB0113B3F80424C2F30902A3F8C0
:10554C0004243E2E0FD9710916F01F0F00D101391A
:10555C00B3F8042492B2890289B20A4342F400429D
:10556C00A3F8042421E04EB9B3F804246FEA4242B4
:10557C006FEA524292B2A3F8042416E0720816F0B5
:10558C00010F00D00132B3F8041489B2920292B226
:10559C000A43A3F8042408E0B5F850309BB22B441E
:1055AC0003EB0113B2B2A3F80424B3B222896169EC
:1055BC002846FFF75BFDF4E500228A611A4679E57F
:1055CC004AB9B3F80C246FEA42426FEA524292B2E3
:1055DC00A3F80C248DE5510812F0010F00D0013115
:1055EC00B3F80C2492B2890289B20A43A3F80C24B2
:1055FC007FE5CB78022B4DD0012B40F02F818969B0
:10560C002369994240F2E680C91AA161F2B9B5F852
:10561C00502092B22A44217802EB0112B2F8041401
:10562C00C1F30901A2F804143E2B40F2D7805809AB
:10563C0013F01F0F00D10138B2F8041489B28002A4
:10564C0080B2014341F40041A2F804146278002AAC
:10565C0040F0F680B5F8502092B22A44217802EB43
:10566C000112B2F80C14C1F30901A2F80C143E2B70
:10567C0040F2CD80590913F01F0F00D10139B2F857
:10568C000C349BB2890289B20B4343F40043A2F859
:10569C000C342EE5F2B9B0F850309BB203440A78C2
:1056AC0003EB0213B3F80424C2F30902A3F8042495
:1056BC000A693E2A31D9510912F01F0F00D1013964
:1056CC00B3F8042492B2890289B20A4342F400422C
:1056DC00A3F804246378002B51D1B5F850309BB259
:1056EC002B44227803EB0213B3F80C24C2F3090207
:1056FC00A3F80C2422693E2A28D9510912F01F0F55
:10570C0000D10139B3F80C2492B2890289B20A4350
:10571C0042F40042A3F80C2433E04AB9B3F8042451
:10572C006FEA42426FEA524292B2A3F80424D1E7E4
:10573C00510812F0010F00D00131B3F8042490B2DB
:10574C008A0292B20243A3F80424C3E74AB9B3F81D
:10575C000C246FEA42426FEA524292B2A3F80C2434
:10576C000FE0510812F0010F00D00131B3F80C24F6
:10577C0090B28A0292B20243A3F80C2401E0012BEE
:10578C001DD0E369002B3FF4B4AC227835F822101D
:10579C0044F2400303EA01008B4302D000287FF45B
:1057AC00A8AC35F822309BB223F4E04323F070030D
:1057BC0043F4004343F0C00325F8223099E4B5F8D4
:1057CC0050309BB22B44227803EB0213228AA3F8AD
:1057DC000C24D6E70023A3610B4617E74BB9B2F8AC
:1057EC0004146FEA41416FEA514189B2A2F80414E2
:1057FC002CE7590813F0010F00D00131B2F8040462
:10580C0080B2890289B20143A2F804141EE74BB995
:10581C00B2F80C346FEA43436FEA53439BB2A2F8DD
:10582C000C3466E4590813F0010F00D00131B2F8C2
:10583C000C3498B28B029BB20343A2F80C3458E49C
:10584C00012A7FF456ACB5F8502092B22A44217844
:10585C0002EB01129BB2A2F80C344AE4012059E489
:10586C0010B45C0800EB420000F5806007E030F8F3
:10587C00042B0A70C2F307224A700231013C002C3F
:10588C00F5D113F0010F01D003880B7010BC7047D9
:10589C007047000010B503460C4A0D490D480068CE
:1058AC0040B10C4800680344521A934206D8094A86
:1058BC00136010BD0748084C0460F2E7FAF70AFDC4
:1058CC000C2303604FF0FF30F3E700BF00500020C3
:1058DC000004000034040020A016002008B50022AB
:1058EC000F49104800F027FB70B90F490D4800F024
:1058FC003BFB60B90D490B4801F0E0FA50B909487F
:10590C0000F04CFB48B908BDFBF742FCEDE7FBF798
:10591C003FFCEFE7FBF73CFCF1E7FBF739FCF2E768
:10592C00900000203804002044010020AC0000202E
:10593C0012230B80004870477C00002004230B804E
:10594C000048704778000020002393421CD200B519
:10595C0010E00EF1370E4FEA430C01F813E0000192
:10596C000CF1010C4FF0000E01F80CE00133DBB22E
:10597C00934207D24FEA107EB0F1204FE9D20EF1DC
:10598C00300EE8E75DF804FB7047000038B50B4BB0
:10599C00D3F8E807D3F8EC47D3F8F037C01800D1A8
:1059AC0038BD074D08222946FFF7CEFF042205F12A
:1059BC0010012046FFF7C8FFF2E700BF00F0FF1F01
:1059CC005E00002008B51A230B80FFF7DFFF0148AB
:1059DC0008BD00BF5C00002010B50A46034C2146F0
:1059EC00034800F0DCFF204610BD00BF1407002068
:1059FC00F46F000810B50A46034C2146034800F02A
:105A0C00CEFF204610BD00BF140700200470000814
:105A1C0010B50A46034C2146034800F0C0FF20464F
:105A2C0010BD00BF140700201470000810B50A4602
:105A3C00034C2146034800F0B2FF204610BD00BFC6
:105A4C001407002030700008034B1B684FF496724B
:105A5C005A639A63704700BFA003002010B500245E
:105A6C00024B1C70FFF7F0FF204610BD24090020EC
:105A7C000020704708B90020704708B5FFF7E4FF15
:105A8C00002008BD002070470020704710B5012A87
:105A9C0003D0032A2CD000203CE01F4801F08FF8E3
:105AAC000446B8B10023A0F8063A012280F8052A72
:105ABC001A490B701A490B701A490B601A490B6082
:105ACC001A490B701A4B1A701A48FDF7BFF938B9FE
